:020000040000FA
:100000000C945C000C9479000C9479000C947900A9
:100010000C9479000C9479000C9479000C9479007C
:100020000C9479000C9479000C9479000C9479006C
:100030000C9479000C9479000C9479000C9479005C
:100040000C9442010C9479000C9479000C94790082
:100050000C9479000C9479000C9479000C9479003C
:100060000C9479000C947900000000002400270013
:100070002A0000000000250028002B0004040404CE
:100080000404040402020202020203030303030342
:10009000010204081020408001020408102001021F
:1000A00004081020000000080002010000030407FB
:1000B000000000000000000011241FBECFEFD8E0B8
:1000C000DEBFCDBF22E0AEE9B2E001C01D92AC3A86
:1000D000B207E1F712E0A0E0B1E0E8EFF9E002C01A
:1000E00005900D92AE39B107D9F70E948C010C949E
:1000F000FA040C940000EDEAF0E02491E9E9F0E064
:100100009491E5E8F0E0E491EE23C9F0222339F080
:10011000233001F1A8F4213019F1223029F1F0E067
:10012000EE0FFF1FEE58FF4FA591B4912FB7F89433
:10013000EC91811126C090959E239C932FBF08952A
:100140002730A9F02830C9F0243049F720918000E9
:100150002F7D03C0209180002F7720938000DFCF78
:1001600024B52F7724BDDBCF24B52F7DFBCF209185
:10017000B0002F772093B000D2CF2091B0002F7D18
:10018000F9CF9E2BDACF3FB7F8948091A3029091DC
:10019000A402A091A502B091A60226B5A89B05C015
:1001A0002F3F19F00196A11DB11D3FBFBA2FA92FF6
:1001B000982F8827BC01CD01620F711D811D911DF3
:1001C00042E0660F771F881F991F4A95D1F708955F
:1001D0008F929F92AF92BF92CF92DF92EF92FF9257
:1001E0004B015C010E94C3006B017C010E94C300B3
:1001F0006C197D098E099F09683E73408105910540
:10020000A8F321E0821A9108A108B10888EEC80E6F
:1002100083E0D81EE11CF11C81149104A104B104F7
:1002200029F7FF90EF90DF90CF90BF90AF909F9015
:100230008F9008950F931F93CF93DF93EC018881E4
:100240009981009759F02A813B812617370730F0B2
:1002500081E0DF91CF911F910F9108958B016F5F26
:100260007F4F0E942504009759F0998388831B8350
:100270000A832C813D81232B59F7FC011082E8CFA2
:1002800080E0E7CF1F920F920FB60F9211242F93A9
:100290003F938F939F93AF93BF9380919F029091D1
:1002A000A002A091A102B091A20230919E0223E08F
:1002B000230F2D3758F50196A11DB11D20939E02E5
:1002C00080939F029093A002A093A102B093A202F8
:1002D0008091A3029091A402A091A502B091A602E0
:1002E0000196A11DB11D8093A3029093A402A09337
:1002F000A502B093A602BF91AF919F918F913F91BC
:100300002F910F900FBE0F901F90189526E8230F86
:100310000296A11DB11DD2CFCF93DF9300D000D0A4
:1003200000D0CDB7DEB7789484B5826084BD84B543
:10033000816084BD85B5826085BD85B5816085BDE0
:1003400080916E00816080936E0010928100809198
:100350008100826080938100809181008160809320
:100360008100809180008160809380008091B10045
:1003700084608093B1008091B00081608093B00070
:1003800080917A00846080937A0080917A00826004
:1003900080937A0080917A00816080937A008091C6
:1003A0007A00806880937A001092C100E9E9F0E059
:1003B0002491E5E8F0E08491882399F090E0880F9B
:1003C000991FFC01E859FF4FA591B491FC01EE582B
:1003D000FF4F859194918FB7F894EC91E22BEC93B9
:1003E0008FBF80E00E947B0020E0A22E20E0B22E92
:1003F0001A8219821C821B821E821D8270E060E0BC
:10040000CE0101960E941A0129813A8181116AC0A8
:100410002115310519F0C9010E949C031A82198225
:100420001E821D821C821B8296E9C92E91E0D92E64
:10043000F60181916F01882309F464C0082E000C35
:10044000990B0E94E204E6E0F1E030E020E0408118
:10045000042E000C550B8417950709F04BC0F901C9
:10046000EE0FFF1FE20FF31FEA5FFE4FE180F28005
:10047000E114F104F1F0F70101900020E9F7319760
:10048000EE19FF09B1F00D811E810E0F1F1FB8017B
:10049000CE0101960E941A01882359F029813A81E0
:1004A0008D819E81B701820F931F0E94F3041E83EA
:1004B0000D830D811E810F5F1F4FB801CE01019684
:1004C0000E941A01882309F4B3CF29813A818D81D2
:1004D0009E8162E172E0820F931F0E94F3041E83EB
:1004E0000D83A6CF1E821D8263E172E0C9010E94C6
:1004F000F3049ACF2F5F3F4F33962033310509F035
:10050000A6CFD7CF10E000E08D819E8180179107A4
:1005100098F10817190720F4E981FA813097A1F4BE
:100520001092A702E7EAF2E080818D32E9F08E3284
:1005300071F0803231F46AEF70E080E090E00E9468
:10054000E8000F5F1F4FE0CFE00FF11FEDCF81E01C
:100550000E947B006AEF70E080E090E00E94E8007B
:1005600080E00E947B00E7CF81E00E947B006EEE7E
:1005700072E080E090E0F2CF89819A81009711F0DB
:100580000E949C03A114B10409F432CF0E94000020
:100590002FCF2F923F924F925F926F927F928F92C6
:1005A0009F92AF92BF92CF92DF92EF92FF920F9302
:1005B0001F93CF93DF93CDB7DEB7CA1BDB0B0FB60C
:1005C000F894DEBF0FBECDBF09942A8839884888C9
:1005D0005F846E847D848C849B84AA84B984C8845F
:1005E000DF80EE80FD800C811B81AA81B981CE0F56
:1005F000D11D0FB6F894DEBF0FBECDBFED0108953B
:100600000F931F93CF93DF938230910510F482E014
:1006100090E0E091AA02F091AB0230E020E0B0E07F
:10062000A0E0309799F42115310509F44AC0281B40
:10063000390B24303105D8F58A819B81611571050C
:1006400089F1FB0193838283FE0111C040815181B6
:100650000281138148175907E0F04817590799F4A8
:10066000109761F012960C93129713961C93329682
:10067000CF01DF91CF911F910F9108950093AA02AE
:100680001093AB02F4CF2115310551F042175307F7
:1006900038F0A901DB019A01BD01DF01F801C1CFEA
:1006A000EF01F9CF9093AB028093AA02CDCFFE0168
:1006B000E20FF31F819391932250310939832883EC
:1006C000D7CF2091A8023091A902232B41F4209189
:1006D0000201309103013093A9022093A8022091D6
:1006E0000001309101012115310541F42DB73EB7CC
:1006F0004091040150910501241B350BE091A802A3
:10070000F091A902E217F307A0F42E1B3F0B281764
:10071000390778F0AC014E5F5F4F2417350748F07A
:100720004E0F5F1F5093A9024093A80281939193AB
:100730009FCFF0E0E0E09CCFCF93DF930097E9F00C
:10074000FC01329713821282A091AA02B091AB02EF
:10075000ED0130E020E01097A1F420813181820F7B
:10076000931F2091A8023091A9022817390709F098
:1007700061C0F093A902E093A802DF91CF910895A0
:10078000EA01CE17DF07E8F54A815B819E0141153A
:100790005105B1F7E901FB83EA8349915991C40FEF
:1007A000D51FEC17FD0761F4808191810296840FBB
:1007B000951FE90199838883828193819B838A8332
:1007C000F0E0E0E012968D919C9113970097B9F5B7
:1007D0002D913C911197CD010296820F931F20918C
:1007E000A8023091A9022817390739F6309751F538
:1007F0001092AB021092AA02B093A902A093A80291
:10080000BCCFD383C28340815181840F951FC81709
:10081000D90761F44E5F5F4F88819981480F591F56
:10082000518340838A819B81938382832115310583
:1008300009F0B0CFF093AB02E093AA029ECFFD0186
:10084000DC01C0CF13821282D7CFB0E0A0E0EBE290
:10085000F4E00C94CB028C01009751F4CB010E9480
:1008600000038C01C801CDB7DEB7E0E10C94E702CC
:10087000FC01E60FF71F9C0122503109E217F30734
:1008800008F49DC0D901CD91DC911197C617D70707
:1008900098F0C530D10530F3CE010497861797073D
:1008A00008F3C61BD70B2297C193D1936D937C930A
:1008B000CF010E949C03D6CF5B01AC1ABD0A4C014C
:1008C0008C0E9D1EA091AA02B091AB02512C412C1E
:1008D000F12CE12C109731F58091A8029091A9029A
:1008E0008815990509F05CC04616570608F058C0EF
:1008F0008091000190910101009741F48DB79EB75E
:100900004091040150910501841B950BE817F907EC
:1009100008F055C0F093A902E093A802F901718391
:100920006083A0CF8D919C91119712966C90129735
:1009300013967C901397A815B90559F56C0142E000
:10094000C40ED11CCA14DB0420F1AC014A195B09A6
:10095000DA011296159780F0628273825183408388
:10096000D9016D937C93E114F10471F0D7011396D2
:10097000FC93EE93129776CF22968C0F9D1FF90170
:1009800091838083F301EFCFF093AB02E093AA024F
:1009900069CF4816590608F42C017D01D3019ACF7E
:1009A000CB010E9400037C01009749F0AE01B80121
:1009B0000E94EA04C8010E949C03870153CF10E003
:1009C00000E050CF9111089581568A5108F4805269
:1009D00085580895FB01DC0102C001900D92415041
:1009E0005040D8F70895FB01DC0101900D920020E2
:1009F000E1F70895F894FFCF0000AC028000418732
:100A000002427102439302443A02454202468C027A
:100A1000474002483302493B024A1B024BFF014C4C
:100A200004024D47024E41024F4602507E0251855C
:100A300002529402537202544802550A0256270287
:100A4000576B02580902596A025A3902200E0231C4
:100A50001402321A02332002342602352C023632B6
:100A600002377002383802393E023044022E4A0200
:100A70002C5A023F61022168023A6F023B7602283B
:100A80007D02298302228A02409102269802495A55
:100A90005557345A434A4B524256495254334A5698
:100AA0005858453433464C355344493353374752ED
:100AB00059584B3243374F52345749594C444E4E94
:100AC0005058494E44494F565054493444424C358D
:100AD0003454493354484C3555474334545647569B
:100AE0005055494D4B4D475256584B325A554E5A18
:100AF0005054514F4435002E2D2E2D002E2D2E2ECC
:100B0000002D2E2E2D002020202020002E2D2D2DDA
:100B10002D002E2E2D2D2D002E2E2E2D2D002E2E85
:100B20002E2E2D002E2E2E2E2E002D2E2E2E2E0071
:100B30002D2D2D2E2E002D2D2D2D2E002D2D2D2D3C
:100B40002D00C2B7E28093C2B7E28093C2B7E280C1
:100B500093002D2D2E2E2D2D002E2E2D2D2E2E00E0
:100B60002D2E2D2E2D2D002D2D2D2E2E2E002D2E09
:100B70002D2E2D2E002D2E2D2D2E002D2E2D2D2EF9
:100B80002D002E2D2E2E2D2E002E2D2D2E2D2E0015
:060B90002E2D2E2E2E007A
:107E0000112484B714BE81FFF0D085E080938100F7
:107E100082E08093C00088E18093C10086E0809377
:107E2000C20080E18093C4008EE0C9D0259A86E02C
:107E300020E33CEF91E0309385002093840096BBD3
:107E4000B09BFECF1D9AA8958150A9F7CC24DD24C4
:107E500088248394B5E0AB2EA1E19A2EF3E0BF2EE7
:107E6000A2D0813461F49FD0082FAFD0023811F036
:107E7000013811F484E001C083E08DD089C08234E0
:107E800011F484E103C0853419F485E0A6D080C0E4
:107E9000853579F488D0E82EFF2485D0082F10E0AE
:107EA000102F00270E291F29000F111F8ED06801E7
:107EB0006FC0863521F484E090D080E0DECF843638
:107EC00009F040C070D06FD0082F6DD080E0C81688
:107ED00080E7D80618F4F601B7BEE895C0E0D1E017
:107EE00062D089930C17E1F7F0E0CF16F0E7DF06D8
:107EF00018F0F601B7BEE89568D007B600FCFDCFD4
:107F0000A601A0E0B1E02C9130E011968C91119780
:107F100090E0982F8827822B932B1296FA010C0160
:107F200087BEE89511244E5F5F4FF1E0A038BF0790
:107F300051F7F601A7BEE89507B600FCFDCF97BE46
:107F4000E89526C08437B1F42ED02DD0F82E2BD052
:107F50003CD0F601EF2C8F010F5F1F4F84911BD097
:107F6000EA94F801C1F70894C11CD11CFA94CF0C13
:107F7000D11C0EC0853739F428D08EE10CD085E9AC
:107F80000AD08FE07ACF813511F488E018D01DD067
:107F900080E101D065CF982F8091C00085FFFCCF94
:107FA0009093C60008958091C00087FFFCCF809118
:107FB000C00084FD01C0A8958091C6000895E0E648
:107FC000F0E098E1908380830895EDDF803219F02E
:107FD00088E0F5DFFFCF84E1DECF1F93182FE3DFCA
:107FE0001150E9F7F2DF1F91089580E0E8DFEE27F6
:047FF000FF270994CA
:027FFE00040479
:00000001FF
